{
  "_format": "hh-sol-artifact-1",
  "contractName": "JETCV",
  "sourceName": "contracts/JETCV.sol",
  "abi": [
    {
      "inputs": [],
      "stateMutability": "nonpayable",
      "type": "constructor"
    },
    {
      "inputs": [
        {
          "internalType": "address",
          "name": "sender",
          "type": "address"
        },
        {
          "internalType": "uint256",
          "name": "tokenId",
          "type": "uint256"
        },
        {
          "internalType": "address",
          "name": "owner",
          "type": "address"
        }
      ],
      "name": "ERC721IncorrectOwner",
      "type": "error"
    },
    {
      "inputs": [
        {
          "internalType": "address",
          "name": "operator",
          "type": "address"
        },
        {
          "internalType": "uint256",
          "name": "tokenId",
          "type": "uint256"
        }
      ],
      "name": "ERC721InsufficientApproval",
      "type": "error"
    },
    {
      "inputs": [
        {
          "internalType": "address",
          "name": "approver",
          "type": "address"
        }
      ],
      "name": "ERC721InvalidApprover",
      "type": "error"
    },
    {
      "inputs": [
        {
          "internalType": "address",
          "name": "operator",
          "type": "address"
        }
      ],
      "name": "ERC721InvalidOperator",
      "type": "error"
    },
    {
      "inputs": [
        {
          "internalType": "address",
          "name": "owner",
          "type": "address"
        }
      ],
      "name": "ERC721InvalidOwner",
      "type": "error"
    },
    {
      "inputs": [
        {
          "internalType": "address",
          "name": "receiver",
          "type": "address"
        }
      ],
      "name": "ERC721InvalidReceiver",
      "type": "error"
    },
    {
      "inputs": [
        {
          "internalType": "address",
          "name": "sender",
          "type": "address"
        }
      ],
      "name": "ERC721InvalidSender",
      "type": "error"
    },
    {
      "inputs": [
        {
          "internalType": "uint256",
          "name": "tokenId",
          "type": "uint256"
        }
      ],
      "name": "ERC721NonexistentToken",
      "type": "error"
    },
    {
      "inputs": [
        {
          "internalType": "address",
          "name": "owner",
          "type": "address"
        }
      ],
      "name": "OwnableInvalidOwner",
      "type": "error"
    },
    {
      "inputs": [
        {
          "internalType": "address",
          "name": "account",
          "type": "address"
        }
      ],
      "name": "OwnableUnauthorizedAccount",
      "type": "error"
    },
    {
      "anonymous": false,
      "inputs": [
        {
          "indexed": true,
          "internalType": "address",
          "name": "owner",
          "type": "address"
        },
        {
          "indexed": true,
          "internalType": "address",
          "name": "approved",
          "type": "address"
        },
        {
          "indexed": true,
          "internalType": "uint256",
          "name": "tokenId",
          "type": "uint256"
        }
      ],
      "name": "Approval",
      "type": "event"
    },
    {
      "anonymous": false,
      "inputs": [
        {
          "indexed": true,
          "internalType": "address",
          "name": "owner",
          "type": "address"
        },
        {
          "indexed": true,
          "internalType": "address",
          "name": "operator",
          "type": "address"
        },
        {
          "indexed": false,
          "internalType": "bool",
          "name": "approved",
          "type": "bool"
        }
      ],
      "name": "ApprovalForAll",
      "type": "event"
    },
    {
      "anonymous": false,
      "inputs": [
        {
          "indexed": true,
          "internalType": "address",
          "name": "previousOwner",
          "type": "address"
        },
        {
          "indexed": true,
          "internalType": "address",
          "name": "newOwner",
          "type": "address"
        }
      ],
      "name": "OwnershipTransferred",
      "type": "event"
    },
    {
      "anonymous": false,
      "inputs": [
        {
          "indexed": true,
          "internalType": "address",
          "name": "from",
          "type": "address"
        },
        {
          "indexed": true,
          "internalType": "address",
          "name": "to",
          "type": "address"
        },
        {
          "indexed": true,
          "internalType": "uint256",
          "name": "tokenId",
          "type": "uint256"
        }
      ],
      "name": "Transfer",
      "type": "event"
    },
    {
      "inputs": [],
      "name": "CONTRACT_VERSION",
      "outputs": [
        {
          "internalType": "string",
          "name": "",
          "type": "string"
        }
      ],
      "stateMutability": "view",
      "type": "function"
    },
    {
      "inputs": [
        {
          "internalType": "address",
          "name": "to",
          "type": "address"
        },
        {
          "internalType": "uint256",
          "name": "tokenId",
          "type": "uint256"
        }
      ],
      "name": "approve",
      "outputs": [],
      "stateMutability": "nonpayable",
      "type": "function"
    },
    {
      "inputs": [
        {
          "internalType": "address",
          "name": "owner",
          "type": "address"
        }
      ],
      "name": "balanceOf",
      "outputs": [
        {
          "internalType": "uint256",
          "name": "",
          "type": "uint256"
        }
      ],
      "stateMutability": "view",
      "type": "function"
    },
    {
      "inputs": [
        {
          "internalType": "uint256",
          "name": "tokenId",
          "type": "uint256"
        }
      ],
      "name": "getApproved",
      "outputs": [
        {
          "internalType": "address",
          "name": "",
          "type": "address"
        }
      ],
      "stateMutability": "view",
      "type": "function"
    },
    {
      "inputs": [
        {
          "internalType": "address",
          "name": "owner",
          "type": "address"
        },
        {
          "internalType": "address",
          "name": "operator",
          "type": "address"
        }
      ],
      "name": "isApprovedForAll",
      "outputs": [
        {
          "internalType": "bool",
          "name": "",
          "type": "bool"
        }
      ],
      "stateMutability": "view",
      "type": "function"
    },
    {
      "inputs": [
        {
          "internalType": "address",
          "name": "walletAddress",
          "type": "address"
        },
        {
          "internalType": "bytes32",
          "name": "idUserActionHash",
          "type": "bytes32"
        },
        {
          "internalType": "string",
          "name": "uri",
          "type": "string"
        }
      ],
      "name": "mint",
      "outputs": [
        {
          "internalType": "uint256",
          "name": "",
          "type": "uint256"
        }
      ],
      "stateMutability": "nonpayable",
      "type": "function"
    },
    {
      "inputs": [],
      "name": "name",
      "outputs": [
        {
          "internalType": "string",
          "name": "",
          "type": "string"
        }
      ],
      "stateMutability": "view",
      "type": "function"
    },
    {
      "inputs": [],
      "name": "owner",
      "outputs": [
        {
          "internalType": "address",
          "name": "",
          "type": "address"
        }
      ],
      "stateMutability": "view",
      "type": "function"
    },
    {
      "inputs": [
        {
          "internalType": "uint256",
          "name": "tokenId",
          "type": "uint256"
        }
      ],
      "name": "ownerOf",
      "outputs": [
        {
          "internalType": "address",
          "name": "",
          "type": "address"
        }
      ],
      "stateMutability": "view",
      "type": "function"
    },
    {
      "inputs": [],
      "name": "renounceOwnership",
      "outputs": [],
      "stateMutability": "nonpayable",
      "type": "function"
    },
    {
      "inputs": [
        {
          "internalType": "address",
          "name": "from",
          "type": "address"
        },
        {
          "internalType": "address",
          "name": "to",
          "type": "address"
        },
        {
          "internalType": "uint256",
          "name": "tokenId",
          "type": "uint256"
        }
      ],
      "name": "safeTransferFrom",
      "outputs": [],
      "stateMutability": "nonpayable",
      "type": "function"
    },
    {
      "inputs": [
        {
          "internalType": "address",
          "name": "from",
          "type": "address"
        },
        {
          "internalType": "address",
          "name": "to",
          "type": "address"
        },
        {
          "internalType": "uint256",
          "name": "tokenId",
          "type": "uint256"
        },
        {
          "internalType": "bytes",
          "name": "data",
          "type": "bytes"
        }
      ],
      "name": "safeTransferFrom",
      "outputs": [],
      "stateMutability": "nonpayable",
      "type": "function"
    },
    {
      "inputs": [
        {
          "internalType": "address",
          "name": "operator",
          "type": "address"
        },
        {
          "internalType": "bool",
          "name": "approved",
          "type": "bool"
        }
      ],
      "name": "setApprovalForAll",
      "outputs": [],
      "stateMutability": "nonpayable",
      "type": "function"
    },
    {
      "inputs": [
        {
          "internalType": "bytes4",
          "name": "interfaceId",
          "type": "bytes4"
        }
      ],
      "name": "supportsInterface",
      "outputs": [
        {
          "internalType": "bool",
          "name": "",
          "type": "bool"
        }
      ],
      "stateMutability": "view",
      "type": "function"
    },
    {
      "inputs": [],
      "name": "symbol",
      "outputs": [
        {
          "internalType": "string",
          "name": "",
          "type": "string"
        }
      ],
      "stateMutability": "view",
      "type": "function"
    },
    {
      "inputs": [
        {
          "internalType": "uint256",
          "name": "tokenId",
          "type": "uint256"
        }
      ],
      "name": "tokenURI",
      "outputs": [
        {
          "internalType": "string",
          "name": "",
          "type": "string"
        }
      ],
      "stateMutability": "view",
      "type": "function"
    },
    {
      "inputs": [
        {
          "internalType": "address",
          "name": "from",
          "type": "address"
        },
        {
          "internalType": "address",
          "name": "to",
          "type": "address"
        },
        {
          "internalType": "uint256",
          "name": "tokenId",
          "type": "uint256"
        }
      ],
      "name": "transferFrom",
      "outputs": [],
      "stateMutability": "nonpayable",
      "type": "function"
    },
    {
      "inputs": [
        {
          "internalType": "address",
          "name": "newOwner",
          "type": "address"
        }
      ],
      "name": "transferOwnership",
      "outputs": [],
      "stateMutability": "nonpayable",
      "type": "function"
    },
    {
      "inputs": [
        {
          "internalType": "uint256",
          "name": "tokenId",
          "type": "uint256"
        },
        {
          "internalType": "string",
          "name": "newUri",
          "type": "string"
        }
      ],
      "name": "updateTokenURI",
      "outputs": [],
      "stateMutability": "nonpayable",
      "type": "function"
    },
    {
      "inputs": [
        {
          "internalType": "uint256",
          "name": "",
          "type": "uint256"
        }
      ],
      "name": "userIdHash",
      "outputs": [
        {
          "internalType": "bytes32",
          "name": "",
          "type": "bytes32"
        }
      ],
      "stateMutability": "view",
      "type": "function"
    }
  ],
  "bytecode": "0x60806040523480156200001157600080fd5b50336040518060400160405280600581526020017f4a455443560000000000000000000000000000000000000000000000000000008152506040518060400160405280600381526020017f4a43560000000000000000000000000000000000000000000000000000000000815250816000908162000090919062000472565b508060019081620000a2919062000472565b505050600073ffffffffffffffffffffffffffffffffffffffff168173ffffffffffffffffffffffffffffffffffffffff16036200011a5760006040517f1e4fbdf70000000000000000000000000000000000000000000000000000000081526004016200011191906200059e565b60405180910390fd5b6200012b816200013260201b60201c565b50620005bb565b6000600660009054906101000a900473ffffffffffffffffffffffffffffffffffffffff16905081600660006101000a81548173ffffffffffffffffffffffffffffffffffffffff021916908373ffffffffffffffffffffffffffffffffffffffff1602179055508173ffffffffffffffffffffffffffffffffffffffff168173ffffffffffffffffffffffffffffffffffffffff167f8be0079c531659141344cd1fd0a4f28419497f9722a3daafe3b4186f6b6457e060405160405180910390a35050565b600081519050919050565b7f4e487b7100000000000000000000000000000000000000000000000000000000600052604160045260246000fd5b7f4e487b7100000000000000000000000000000000000000000000000000000000600052602260045260246000fd5b600060028204905060018216806200027a57607f821691505b60208210810362000290576200028f62000232565b5b50919050565b60008190508160005260206000209050919050565b60006020601f8301049050919050565b600082821b905092915050565b600060088302620002fa7fffffffffffffffffffffffffffffffffffffffffffffffffffffffffffffffff82620002bb565b620003068683620002bb565b95508019841693508086168417925050509392505050565b6000819050919050565b6000819050919050565b6000620003536200034d62000347846200031e565b62000328565b6200031e565b9050919050565b6000819050919050565b6200036f8362000332565b620003876200037e826200035a565b848454620002c8565b825550505050565b600090565b6200039e6200038f565b620003ab81848462000364565b505050565b5b81811015620003d357620003c760008262000394565b600181019050620003b1565b5050565b601f8211156200042257620003ec8162000296565b620003f784620002ab565b8101602085101562000407578190505b6200041f6200041685620002ab565b830182620003b0565b50505b505050565b600082821c905092915050565b6000620004476000198460080262000427565b1980831691505092915050565b600062000462838362000434565b9150826002028217905092915050565b6200047d82620001f8565b67ffffffffffffffff81111562000499576200049862000203565b5b620004a5825462000261565b620004b2828285620003d7565b600060209050601f831160018114620004ea5760008415620004d5578287015190505b620004e1858262000454565b86555062000551565b601f198416620004fa8662000296565b60005b828110156200052457848901518255600182019150602085019450602081019050620004fd565b8683101562000544578489015162000540601f89168262000434565b8355505b6001600288020188555050505b505050505050565b600073ffffffffffffffffffffffffffffffffffffffff82169050919050565b6000620005868262000559565b9050919050565b620005988162000579565b82525050565b6000602082019050620005b560008301846200058d565b92915050565b6128b180620005cb6000396000f3fe608060405234801561001057600080fd5b506004361061012c5760003560e01c806370a08231116100ad578063a22cb46511610071578063a22cb46514610343578063b88d4fde1461035f578063c87b56dd1461037b578063e985e9c5146103ab578063f2fde38b146103db5761012c565b806370a082311461029d578063715018a6146102cd57806381365107146102d75780638da5cb5b1461030757806395d89b41146103255761012c565b806323b872dd116100f457806323b872dd146101e757806338b903331461020357806342842e0e14610221578063517e75141461023d5780636352211e1461026d5761012c565b806301ffc9a71461013157806306fdde0314610161578063081812fc1461017f578063095ea7b3146101af57806318e97fd1146101cb575b600080fd5b61014b60048036038101906101469190611ae7565b6103f7565b6040516101589190611b2f565b60405180910390f35b6101696104d9565b6040516101769190611bda565b60405180910390f35b61019960048036038101906101949190611c32565b61056b565b6040516101a69190611ca0565b60405180910390f35b6101c960048036038101906101c49190611ce7565b610587565b005b6101e560048036038101906101e09190611d8c565b61059d565b005b61020160048036038101906101fc9190611dec565b610672565b005b61020b610774565b6040516102189190611bda565b60405180910390f35b61023b60048036038101906102369190611dec565b6107ad565b005b61025760048036038101906102529190611e75565b6107cd565b6040516102649190611ef8565b60405180910390f35b61028760048036038101906102829190611c32565b61099c565b6040516102949190611ca0565b60405180910390f35b6102b760048036038101906102b29190611f13565b6109ae565b6040516102c49190611ef8565b60405180910390f35b6102d5610a68565b005b6102f160048036038101906102ec9190611c32565b610a7c565b6040516102fe9190611f4f565b60405180910390f35b61030f610a94565b60405161031c9190611ca0565b60405180910390f35b61032d610abe565b60405161033a9190611bda565b60405180910390f35b61035d60048036038101906103589190611f96565b610b50565b005b61037960048036038101906103749190612106565b610b66565b005b61039560048036038101906103909190611c32565b610b8b565b6040516103a29190611bda565b60405180910390f35b6103c560048036038101906103c09190612189565b610ca7565b6040516103d29190611b2f565b60405180910390f35b6103f560048036038101906103f09190611f13565b610d3b565b005b60007f80ac58cd000000000000000000000000000000000000000000000000000000007bffffffffffffffffffffffffffffffffffffffffffffffffffffffff1916827bffffffffffffffffffffffffffffffffffffffffffffffffffffffff191614806104c257507f5b5e139f000000000000000000000000000000000000000000000000000000007bffffffffffffffffffffffffffffffffffffffffffffffffffffffff1916827bffffffffffffffffffffffffffffffffffffffffffffffffffffffff1916145b806104d257506104d182610dc1565b5b9050919050565b6060600080546104e8906121f8565b80601f0160208091040260200160405190810160405280929190818152602001828054610514906121f8565b80156105615780601f1061053657610100808354040283529160200191610561565b820191906000526020600020905b81548152906001019060200180831161054457829003601f168201915b5050505050905090565b600061057682610e2b565b5061058082610eb3565b9050919050565b6105998282610594610ef0565b610ef8565b5050565b6105a5610f0a565b600073ffffffffffffffffffffffffffffffffffffffff166105c684610f91565b73ffffffffffffffffffffffffffffffffffffffff160361061c576040517f08c379a000000000000000000000000000000000000000000000000000000000815260040161061390612275565b60405180910390fd5b60008282905011610662576040517f08c379a0000000000000000000000000000000000000000000000000000000008152600401610659906122e1565b60405180910390fd5b61066d838383610fce565b505050565b600073ffffffffffffffffffffffffffffffffffffffff168273ffffffffffffffffffffffffffffffffffffffff16036106e45760006040517f64a0ae920000000000000000000000000000000000000000000000000000000081526004016106db9190611ca0565b60405180910390fd5b60006106f883836106f3610ef0565b610ff6565b90508373ffffffffffffffffffffffffffffffffffffffff168173ffffffffffffffffffffffffffffffffffffffff161461076e578382826040517f64283d7b00000000000000000000000000000000000000000000000000000000815260040161076593929190612301565b60405180910390fd5b50505050565b6040518060400160405280600381526020017f312e30000000000000000000000000000000000000000000000000000000000081525081565b6107c883838360405180602001604052806000815250610b66565b505050565b60006107d7610f0a565b600073ffffffffffffffffffffffffffffffffffffffff168573ffffffffffffffffffffffffffffffffffffffff1603610846576040517f08c379a000000000000000000000000000000000000000000000000000000000815260040161083d90612384565b60405180910390fd5b6000801b840361088b576040517f08c379a0000000000000000000000000000000000000000000000000000000008152600401610882906123f0565b60405180910390fd5b600083839050116108d1576040517f08c379a00000000000000000000000000000000000000000000000000000000081526004016108c8906122e1565b60405180910390fd5b60008573ffffffffffffffffffffffffffffffffffffffff169050600073ffffffffffffffffffffffffffffffffffffffff1661090d82610f91565b73ffffffffffffffffffffffffffffffffffffffff1614610963576040517f08c379a000000000000000000000000000000000000000000000000000000000815260040161095a9061245c565b60405180910390fd5b61096d8682611210565b846007600083815260200190815260200160002081905550610990818585610fce565b80915050949350505050565b60006109a782610e2b565b9050919050565b60008073ffffffffffffffffffffffffffffffffffffffff168273ffffffffffffffffffffffffffffffffffffffff1603610a215760006040517f89c62b64000000000000000000000000000000000000000000000000000000008152600401610a189190611ca0565b60405180910390fd5b600360008373ffffffffffffffffffffffffffffffffffffffff1673ffffffffffffffffffffffffffffffffffffffff168152602001908152602001600020549050919050565b610a70610f0a565b610a7a600061122e565b565b60076020528060005260406000206000915090505481565b6000600660009054906101000a900473ffffffffffffffffffffffffffffffffffffffff16905090565b606060018054610acd906121f8565b80601f0160208091040260200160405190810160405280929190818152602001828054610af9906121f8565b8015610b465780601f10610b1b57610100808354040283529160200191610b46565b820191906000526020600020905b815481529060010190602001808311610b2957829003601f168201915b5050505050905090565b610b62610b5b610ef0565b83836112f4565b5050565b610b71848484610672565b610b85610b7c610ef0565b85858585611463565b50505050565b6060600073ffffffffffffffffffffffffffffffffffffffff16610bae83610f91565b73ffffffffffffffffffffffffffffffffffffffff1603610c04576040517f08c379a0000000000000000000000000000000000000000000000000000000008152600401610bfb906124c8565b60405180910390fd5b600860008381526020019081526020016000208054610c22906121f8565b80601f0160208091040260200160405190810160405280929190818152602001828054610c4e906121f8565b8015610c9b5780601f10610c7057610100808354040283529160200191610c9b565b820191906000526020600020905b815481529060010190602001808311610c7e57829003601f168201915b50505050509050919050565b6000600560008473ffffffffffffffffffffffffffffffffffffffff1673ffffffffffffffffffffffffffffffffffffffff16815260200190815260200160002060008373ffffffffffffffffffffffffffffffffffffffff1673ffffffffffffffffffffffffffffffffffffffff16815260200190815260200160002060009054906101000a900460ff16905092915050565b610d43610f0a565b600073ffffffffffffffffffffffffffffffffffffffff168173ffffffffffffffffffffffffffffffffffffffff1603610db55760006040517f1e4fbdf7000000000000000000000000000000000000000000000000000000008152600401610dac9190611ca0565b60405180910390fd5b610dbe8161122e565b50565b60007f01ffc9a7000000000000000000000000000000000000000000000000000000007bffffffffffffffffffffffffffffffffffffffffffffffffffffffff1916827bffffffffffffffffffffffffffffffffffffffffffffffffffffffff1916149050919050565b600080610e3783610f91565b9050600073ffffffffffffffffffffffffffffffffffffffff168173ffffffffffffffffffffffffffffffffffffffff1603610eaa57826040517f7e273289000000000000000000000000000000000000000000000000000000008152600401610ea19190611ef8565b60405180910390fd5b80915050919050565b60006004600083815260200190815260200160002060009054906101000a900473ffffffffffffffffffffffffffffffffffffffff169050919050565b600033905090565b610f058383836001611614565b505050565b610f12610ef0565b73ffffffffffffffffffffffffffffffffffffffff16610f30610a94565b73ffffffffffffffffffffffffffffffffffffffff1614610f8f57610f53610ef0565b6040517f118cdaa7000000000000000000000000000000000000000000000000000000008152600401610f869190611ca0565b60405180910390fd5b565b60006002600083815260200190815260200160002060009054906101000a900473ffffffffffffffffffffffffffffffffffffffff169050919050565b8181600860008681526020019081526020016000209182610ff092919061269f565b50505050565b60008061100284610f91565b9050600073ffffffffffffffffffffffffffffffffffffffff168373ffffffffffffffffffffffffffffffffffffffff1614611044576110438184866117d9565b5b600073ffffffffffffffffffffffffffffffffffffffff168173ffffffffffffffffffffffffffffffffffffffff16146110d557611086600085600080611614565b6001600360008373ffffffffffffffffffffffffffffffffffffffff1673ffffffffffffffffffffffffffffffffffffffff168152602001908152602001600020600082825403925050819055505b600073ffffffffffffffffffffffffffffffffffffffff168573ffffffffffffffffffffffffffffffffffffffff1614611158576001600360008773ffffffffffffffffffffffffffffffffffffffff1673ffffffffffffffffffffffffffffffffffffffff168152602001908152602001600020600082825401925050819055505b846002600086815260200190815260200160002060006101000a81548173ffffffffffffffffffffffffffffffffffffffff021916908373ffffffffffffffffffffffffffffffffffffffff160217905550838573ffffffffffffffffffffffffffffffffffffffff168273ffffffffffffffffffffffffffffffffffffffff167fddf252ad1be2c89b69c2b068fc378daa952ba7f163c4a11628f55a4df523b3ef60405160405180910390a4809150509392505050565b61122a82826040518060200160405280600081525061189d565b5050565b6000600660009054906101000a900473ffffffffffffffffffffffffffffffffffffffff16905081600660006101000a81548173ffffffffffffffffffffffffffffffffffffffff021916908373ffffffffffffffffffffffffffffffffffffffff1602179055508173ffffffffffffffffffffffffffffffffffffffff168173ffffffffffffffffffffffffffffffffffffffff167f8be0079c531659141344cd1fd0a4f28419497f9722a3daafe3b4186f6b6457e060405160405180910390a35050565b600073ffffffffffffffffffffffffffffffffffffffff168273ffffffffffffffffffffffffffffffffffffffff160361136557816040517f5b08ba1800000000000000000000000000000000000000000000000000000000815260040161135c9190611ca0565b60405180910390fd5b80600560008573ffffffffffffffffffffffffffffffffffffffff1673ffffffffffffffffffffffffffffffffffffffff16815260200190815260200160002060008473ffffffffffffffffffffffffffffffffffffffff1673ffffffffffffffffffffffffffffffffffffffff16815260200190815260200160002060006101000a81548160ff0219169083151502179055508173ffffffffffffffffffffffffffffffffffffffff168373ffffffffffffffffffffffffffffffffffffffff167f17307eab39ab6107e8899845ad3d59bd9653f200f220920489ca2b5937696c31836040516114569190611b2f565b60405180910390a3505050565b60008373ffffffffffffffffffffffffffffffffffffffff163b111561160d578273ffffffffffffffffffffffffffffffffffffffff1663150b7a02868685856040518563ffffffff1660e01b81526004016114c294939291906127c4565b6020604051808303816000875af19250505080156114fe57506040513d601f19601f820116820180604052508101906114fb9190612825565b60015b611582573d806000811461152e576040519150601f19603f3d011682016040523d82523d6000602084013e611533565b606091505b50600081510361157a57836040517f64a0ae920000000000000000000000000000000000000000000000000000000081526004016115719190611ca0565b60405180910390fd5b805160208201fd5b63150b7a0260e01b7bffffffffffffffffffffffffffffffffffffffffffffffffffffffff1916817bffffffffffffffffffffffffffffffffffffffffffffffffffffffff19161461160b57836040517f64a0ae920000000000000000000000000000000000000000000000000000000081526004016116029190611ca0565b60405180910390fd5b505b5050505050565b808061164d5750600073ffffffffffffffffffffffffffffffffffffffff168273ffffffffffffffffffffffffffffffffffffffff1614155b1561178157600061165d84610e2b565b9050600073ffffffffffffffffffffffffffffffffffffffff168373ffffffffffffffffffffffffffffffffffffffff16141580156116c857508273ffffffffffffffffffffffffffffffffffffffff168173ffffffffffffffffffffffffffffffffffffffff1614155b80156116db57506116d98184610ca7565b155b1561171d57826040517fa9fbf51f0000000000000000000000000000000000000000000000000000000081526004016117149190611ca0565b60405180910390fd5b811561177f57838573ffffffffffffffffffffffffffffffffffffffff168273ffffffffffffffffffffffffffffffffffffffff167f8c5be1e5ebec7d5bd14f71427d1e84f3dd0314c0f7b2291e5b200ac8c7c3b92560405160405180910390a45b505b836004600085815260200190815260200160002060006101000a81548173ffffffffffffffffffffffffffffffffffffffff021916908373ffffffffffffffffffffffffffffffffffffffff16021790555050505050565b6117e48383836118c1565b61189857600073ffffffffffffffffffffffffffffffffffffffff168373ffffffffffffffffffffffffffffffffffffffff160361185957806040517f7e2732890000000000000000000000000000000000000000000000000000000081526004016118509190611ef8565b60405180910390fd5b81816040517f177e802f00000000000000000000000000000000000000000000000000000000815260040161188f929190612852565b60405180910390fd5b505050565b6118a78383611982565b6118bc6118b2610ef0565b6000858585611463565b505050565b60008073ffffffffffffffffffffffffffffffffffffffff168373ffffffffffffffffffffffffffffffffffffffff161415801561197957508273ffffffffffffffffffffffffffffffffffffffff168473ffffffffffffffffffffffffffffffffffffffff16148061193a57506119398484610ca7565b5b8061197857508273ffffffffffffffffffffffffffffffffffffffff1661196083610eb3565b73ffffffffffffffffffffffffffffffffffffffff16145b5b90509392505050565b600073ffffffffffffffffffffffffffffffffffffffff168273ffffffffffffffffffffffffffffffffffffffff16036119f45760006040517f64a0ae920000000000000000000000000000000000000000000000000000000081526004016119eb9190611ca0565b60405180910390fd5b6000611a0283836000610ff6565b9050600073ffffffffffffffffffffffffffffffffffffffff168173ffffffffffffffffffffffffffffffffffffffff1614611a765760006040517f73c6ac6e000000000000000000000000000000000000000000000000000000008152600401611a6d9190611ca0565b60405180910390fd5b505050565b6000604051905090565b600080fd5b600080fd5b60007fffffffff0000000000000000000000000000000000000000000000000000000082169050919050565b611ac481611a8f565b8114611acf57600080fd5b50565b600081359050611ae181611abb565b92915050565b600060208284031215611afd57611afc611a85565b5b6000611b0b84828501611ad2565b91505092915050565b60008115159050919050565b611b2981611b14565b82525050565b6000602082019050611b446000830184611b20565b92915050565b600081519050919050565b600082825260208201905092915050565b60005b83811015611b84578082015181840152602081019050611b69565b60008484015250505050565b6000601f19601f8301169050919050565b6000611bac82611b4a565b611bb68185611b55565b9350611bc6818560208601611b66565b611bcf81611b90565b840191505092915050565b60006020820190508181036000830152611bf48184611ba1565b905092915050565b6000819050919050565b611c0f81611bfc565b8114611c1a57600080fd5b50565b600081359050611c2c81611c06565b92915050565b600060208284031215611c4857611c47611a85565b5b6000611c5684828501611c1d565b91505092915050565b600073ffffffffffffffffffffffffffffffffffffffff82169050919050565b6000611c8a82611c5f565b9050919050565b611c9a81611c7f565b82525050565b6000602082019050611cb56000830184611c91565b92915050565b611cc481611c7f565b8114611ccf57600080fd5b50565b600081359050611ce181611cbb565b92915050565b60008060408385031215611cfe57611cfd611a85565b5b6000611d0c85828601611cd2565b9250506020611d1d85828601611c1d565b9150509250929050565b600080fd5b600080fd5b600080fd5b60008083601f840112611d4c57611d4b611d27565b5b8235905067ffffffffffffffff811115611d6957611d68611d2c565b5b602083019150836001820283011115611d8557611d84611d31565b5b9250929050565b600080600060408486031215611da557611da4611a85565b5b6000611db386828701611c1d565b935050602084013567ffffffffffffffff811115611dd457611dd3611a8a565b5b611de086828701611d36565b92509250509250925092565b600080600060608486031215611e0557611e04611a85565b5b6000611e1386828701611cd2565b9350506020611e2486828701611cd2565b9250506040611e3586828701611c1d565b9150509250925092565b6000819050919050565b611e5281611e3f565b8114611e5d57600080fd5b50565b600081359050611e6f81611e49565b92915050565b60008060008060608587031215611e8f57611e8e611a85565b5b6000611e9d87828801611cd2565b9450506020611eae87828801611e60565b935050604085013567ffffffffffffffff811115611ecf57611ece611a8a565b5b611edb87828801611d36565b925092505092959194509250565b611ef281611bfc565b82525050565b6000602082019050611f0d6000830184611ee9565b92915050565b600060208284031215611f2957611f28611a85565b5b6000611f3784828501611cd2565b91505092915050565b611f4981611e3f565b82525050565b6000602082019050611f646000830184611f40565b92915050565b611f7381611b14565b8114611f7e57600080fd5b50565b600081359050611f9081611f6a565b92915050565b60008060408385031215611fad57611fac611a85565b5b6000611fbb85828601611cd2565b9250506020611fcc85828601611f81565b9150509250929050565b600080fd5b7f4e487b7100000000000000000000000000000000000000000000000000000000600052604160045260246000fd5b61201382611b90565b810181811067ffffffffffffffff8211171561203257612031611fdb565b5b80604052505050565b6000612045611a7b565b9050612051828261200a565b919050565b600067ffffffffffffffff82111561207157612070611fdb565b5b61207a82611b90565b9050602081019050919050565b82818337600083830152505050565b60006120a96120a484612056565b61203b565b9050828152602081018484840111156120c5576120c4611fd6565b5b6120d0848285612087565b509392505050565b600082601f8301126120ed576120ec611d27565b5b81356120fd848260208601612096565b91505092915050565b600080600080608085870312156121205761211f611a85565b5b600061212e87828801611cd2565b945050602061213f87828801611cd2565b935050604061215087828801611c1d565b925050606085013567ffffffffffffffff81111561217157612170611a8a565b5b61217d878288016120d8565b91505092959194509250565b600080604083850312156121a05761219f611a85565b5b60006121ae85828601611cd2565b92505060206121bf85828601611cd2565b9150509250929050565b7f4e487b7100000000000000000000000000000000000000000000000000000000600052602260045260246000fd5b6000600282049050600182168061221057607f821691505b602082108103612223576122226121c9565b5b50919050565b7f546f6b656e206e6f74206d696e74656400000000000000000000000000000000600082015250565b600061225f601083611b55565b915061226a82612229565b602082019050919050565b6000602082019050818103600083015261228e81612252565b9050919050565b7f5552492063616e6e6f7420626520656d70747900000000000000000000000000600082015250565b60006122cb601383611b55565b91506122d682612295565b602082019050919050565b600060208201905081810360008301526122fa816122be565b9050919050565b60006060820190506123166000830186611c91565b6123236020830185611ee9565b6123306040830184611c91565b949350505050565b7f496e76616c69642077616c6c6574206164647265737300000000000000000000600082015250565b600061236e601683611b55565b915061237982612338565b602082019050919050565b6000602082019050818103600083015261239d81612361565b9050919050565b7f496e76616c696420757365722068617368000000000000000000000000000000600082015250565b60006123da601183611b55565b91506123e5826123a4565b602082019050919050565b60006020820190508181036000830152612409816123cd565b9050919050565b7f416c7265616479206d696e74656420666f722077616c6c657400000000000000600082015250565b6000612446601983611b55565b915061245182612410565b602082019050919050565b6000602082019050818103600083015261247581612439565b9050919050565b7f4e6f6e6578697374656e7420746f6b656e000000000000000000000000000000600082015250565b60006124b2601183611b55565b91506124bd8261247c565b602082019050919050565b600060208201905081810360008301526124e1816124a5565b9050919050565b600082905092915050565b60008190508160005260206000209050919050565b60006020601f8301049050919050565b600082821b905092915050565b6000600883026125557fffffffffffffffffffffffffffffffffffffffffffffffffffffffffffffffff82612518565b61255f8683612518565b95508019841693508086168417925050509392505050565b6000819050919050565b600061259c61259761259284611bfc565b612577565b611bfc565b9050919050565b6000819050919050565b6125b683612581565b6125ca6125c2826125a3565b848454612525565b825550505050565b600090565b6125df6125d2565b6125ea8184846125ad565b505050565b5b8181101561260e576126036000826125d7565b6001810190506125f0565b5050565b601f82111561265357612624816124f3565b61262d84612508565b8101602085101561263c578190505b61265061264885612508565b8301826125ef565b50505b505050565b600082821c905092915050565b600061267660001984600802612658565b1980831691505092915050565b600061268f8383612665565b9150826002028217905092915050565b6126a983836124e8565b67ffffffffffffffff8111156126c2576126c1611fdb565b5b6126cc82546121f8565b6126d7828285612612565b6000601f83116001811461270657600084156126f4578287013590505b6126fe8582612683565b865550612766565b601f198416612714866124f3565b60005b8281101561273c57848901358255600182019150602085019450602081019050612717565b868310156127595784890135612755601f891682612665565b8355505b6001600288020188555050505b50505050505050565b600081519050919050565b600082825260208201905092915050565b60006127968261276f565b6127a0818561277a565b93506127b0818560208601611b66565b6127b981611b90565b840191505092915050565b60006080820190506127d96000830187611c91565b6127e66020830186611c91565b6127f36040830185611ee9565b8181036060830152612805818461278b565b905095945050505050565b60008151905061281f81611abb565b92915050565b60006020828403121561283b5761283a611a85565b5b600061284984828501612810565b91505092915050565b60006040820190506128676000830185611c91565b6128746020830184611ee9565b939250505056fea2646970667358221220cf5c095c2188d33dcc80d760b014c84f4f94be078e774bea5526a2efd33d9ed164736f6c63430008170033",
  "linkReferences": {},
  "deployedLinkReferences": {}
}