{
  "_format": "hh-sol-artifact-1",
  "contractName": "JetCVNFT",
  "sourceName": "contracts/MyContract.sol",
  "abi": [
    {
      "inputs": [],
      "stateMutability": "nonpayable",
      "type": "constructor"
    },
    {
      "inputs": [
        {
          "internalType": "address",
          "name": "sender",
          "type": "address"
        },
        {
          "internalType": "uint256",
          "name": "tokenId",
          "type": "uint256"
        },
        {
          "internalType": "address",
          "name": "owner",
          "type": "address"
        }
      ],
      "name": "ERC721IncorrectOwner",
      "type": "error"
    },
    {
      "inputs": [
        {
          "internalType": "address",
          "name": "operator",
          "type": "address"
        },
        {
          "internalType": "uint256",
          "name": "tokenId",
          "type": "uint256"
        }
      ],
      "name": "ERC721InsufficientApproval",
      "type": "error"
    },
    {
      "inputs": [
        {
          "internalType": "address",
          "name": "approver",
          "type": "address"
        }
      ],
      "name": "ERC721InvalidApprover",
      "type": "error"
    },
    {
      "inputs": [
        {
          "internalType": "address",
          "name": "operator",
          "type": "address"
        }
      ],
      "name": "ERC721InvalidOperator",
      "type": "error"
    },
    {
      "inputs": [
        {
          "internalType": "address",
          "name": "owner",
          "type": "address"
        }
      ],
      "name": "ERC721InvalidOwner",
      "type": "error"
    },
    {
      "inputs": [
        {
          "internalType": "address",
          "name": "receiver",
          "type": "address"
        }
      ],
      "name": "ERC721InvalidReceiver",
      "type": "error"
    },
    {
      "inputs": [
        {
          "internalType": "address",
          "name": "sender",
          "type": "address"
        }
      ],
      "name": "ERC721InvalidSender",
      "type": "error"
    },
    {
      "inputs": [
        {
          "internalType": "uint256",
          "name": "tokenId",
          "type": "uint256"
        }
      ],
      "name": "ERC721NonexistentToken",
      "type": "error"
    },
    {
      "inputs": [
        {
          "internalType": "address",
          "name": "owner",
          "type": "address"
        }
      ],
      "name": "OwnableInvalidOwner",
      "type": "error"
    },
    {
      "inputs": [
        {
          "internalType": "address",
          "name": "account",
          "type": "address"
        }
      ],
      "name": "OwnableUnauthorizedAccount",
      "type": "error"
    },
    {
      "anonymous": false,
      "inputs": [
        {
          "indexed": true,
          "internalType": "address",
          "name": "owner",
          "type": "address"
        },
        {
          "indexed": true,
          "internalType": "address",
          "name": "approved",
          "type": "address"
        },
        {
          "indexed": true,
          "internalType": "uint256",
          "name": "tokenId",
          "type": "uint256"
        }
      ],
      "name": "Approval",
      "type": "event"
    },
    {
      "anonymous": false,
      "inputs": [
        {
          "indexed": true,
          "internalType": "address",
          "name": "owner",
          "type": "address"
        },
        {
          "indexed": true,
          "internalType": "address",
          "name": "operator",
          "type": "address"
        },
        {
          "indexed": false,
          "internalType": "bool",
          "name": "approved",
          "type": "bool"
        }
      ],
      "name": "ApprovalForAll",
      "type": "event"
    },
    {
      "anonymous": false,
      "inputs": [
        {
          "indexed": false,
          "internalType": "uint256",
          "name": "_fromTokenId",
          "type": "uint256"
        },
        {
          "indexed": false,
          "internalType": "uint256",
          "name": "_toTokenId",
          "type": "uint256"
        }
      ],
      "name": "BatchMetadataUpdate",
      "type": "event"
    },
    {
      "anonymous": false,
      "inputs": [
        {
          "indexed": false,
          "internalType": "address",
          "name": "walletAddress",
          "type": "address"
        },
        {
          "indexed": false,
          "internalType": "address",
          "name": "certificatorAddress",
          "type": "address"
        },
        {
          "indexed": false,
          "internalType": "address",
          "name": "legalEntityAddress",
          "type": "address"
        },
        {
          "indexed": false,
          "internalType": "bytes32",
          "name": "certificatorIdHash",
          "type": "bytes32"
        },
        {
          "indexed": false,
          "internalType": "bytes32",
          "name": "legalEntityIdHash",
          "type": "bytes32"
        },
        {
          "indexed": false,
          "internalType": "bytes32",
          "name": "certificationIdHash",
          "type": "bytes32"
        },
        {
          "indexed": false,
          "internalType": "string[]",
          "name": "documents",
          "type": "string[]"
        }
      ],
      "name": "CertificationApproved",
      "type": "event"
    },
    {
      "anonymous": false,
      "inputs": [
        {
          "indexed": true,
          "internalType": "address",
          "name": "user",
          "type": "address"
        },
        {
          "indexed": false,
          "internalType": "uint256",
          "name": "tokenId",
          "type": "uint256"
        },
        {
          "indexed": false,
          "internalType": "uint256",
          "name": "timestamp",
          "type": "uint256"
        },
        {
          "indexed": false,
          "internalType": "string",
          "name": "reason",
          "type": "string"
        },
        {
          "indexed": false,
          "internalType": "address",
          "name": "newContract",
          "type": "address"
        },
        {
          "indexed": false,
          "internalType": "bytes32",
          "name": "userIdHash",
          "type": "bytes32"
        }
      ],
      "name": "JetCVMigrated",
      "type": "event"
    },
    {
      "anonymous": false,
      "inputs": [
        {
          "indexed": true,
          "internalType": "address",
          "name": "user",
          "type": "address"
        },
        {
          "indexed": false,
          "internalType": "bytes32",
          "name": "userIdHash",
          "type": "bytes32"
        }
      ],
      "name": "JetCVMinted",
      "type": "event"
    },
    {
      "anonymous": false,
      "inputs": [
        {
          "indexed": false,
          "internalType": "uint256",
          "name": "_tokenId",
          "type": "uint256"
        }
      ],
      "name": "MetadataUpdate",
      "type": "event"
    },
    {
      "anonymous": false,
      "inputs": [
        {
          "indexed": true,
          "internalType": "address",
          "name": "previousOwner",
          "type": "address"
        },
        {
          "indexed": true,
          "internalType": "address",
          "name": "newOwner",
          "type": "address"
        }
      ],
      "name": "OwnershipTransferred",
      "type": "event"
    },
    {
      "anonymous": false,
      "inputs": [
        {
          "indexed": true,
          "internalType": "address",
          "name": "from",
          "type": "address"
        },
        {
          "indexed": true,
          "internalType": "address",
          "name": "to",
          "type": "address"
        },
        {
          "indexed": true,
          "internalType": "uint256",
          "name": "tokenId",
          "type": "uint256"
        }
      ],
      "name": "Transfer",
      "type": "event"
    },
    {
      "inputs": [],
      "name": "CONTRACT_VERSION",
      "outputs": [
        {
          "internalType": "string",
          "name": "",
          "type": "string"
        }
      ],
      "stateMutability": "view",
      "type": "function"
    },
    {
      "inputs": [
        {
          "internalType": "uint256",
          "name": "",
          "type": "uint256"
        }
      ],
      "name": "allTokenIds",
      "outputs": [
        {
          "internalType": "uint256",
          "name": "",
          "type": "uint256"
        }
      ],
      "stateMutability": "view",
      "type": "function"
    },
    {
      "inputs": [
        {
          "internalType": "address",
          "name": "to",
          "type": "address"
        },
        {
          "internalType": "uint256",
          "name": "tokenId",
          "type": "uint256"
        }
      ],
      "name": "approve",
      "outputs": [],
      "stateMutability": "nonpayable",
      "type": "function"
    },
    {
      "inputs": [
        {
          "internalType": "address",
          "name": "walletAddress",
          "type": "address"
        },
        {
          "internalType": "uint256",
          "name": "tokenId",
          "type": "uint256"
        },
        {
          "internalType": "bytes32",
          "name": "certificationIdHash",
          "type": "bytes32"
        },
        {
          "internalType": "string[]",
          "name": "documents",
          "type": "string[]"
        },
        {
          "internalType": "address",
          "name": "legalEntityAddress",
          "type": "address"
        },
        {
          "internalType": "bytes32",
          "name": "legalEntityIdHash",
          "type": "bytes32"
        },
        {
          "internalType": "address",
          "name": "certificatorAddress",
          "type": "address"
        },
        {
          "internalType": "bytes32",
          "name": "certificatorIdHash",
          "type": "bytes32"
        }
      ],
      "name": "approveCertification",
      "outputs": [],
      "stateMutability": "nonpayable",
      "type": "function"
    },
    {
      "inputs": [
        {
          "internalType": "address",
          "name": "owner",
          "type": "address"
        }
      ],
      "name": "balanceOf",
      "outputs": [
        {
          "internalType": "uint256",
          "name": "",
          "type": "uint256"
        }
      ],
      "stateMutability": "view",
      "type": "function"
    },
    {
      "inputs": [
        {
          "internalType": "address",
          "name": "walletAddress",
          "type": "address"
        },
        {
          "internalType": "string",
          "name": "reason",
          "type": "string"
        },
        {
          "internalType": "address",
          "name": "newContract",
          "type": "address"
        }
      ],
      "name": "burnForMigration",
      "outputs": [],
      "stateMutability": "nonpayable",
      "type": "function"
    },
    {
      "inputs": [
        {
          "internalType": "uint256",
          "name": "",
          "type": "uint256"
        },
        {
          "internalType": "uint256",
          "name": "",
          "type": "uint256"
        }
      ],
      "name": "certifications",
      "outputs": [
        {
          "internalType": "bytes32",
          "name": "certificationIdHash",
          "type": "bytes32"
        },
        {
          "internalType": "address",
          "name": "legalEntityAddress",
          "type": "address"
        },
        {
          "internalType": "bytes32",
          "name": "legalEntityIdHash",
          "type": "bytes32"
        },
        {
          "internalType": "address",
          "name": "certificatorAddress",
          "type": "address"
        },
        {
          "internalType": "bytes32",
          "name": "certificatorIdHash",
          "type": "bytes32"
        },
        {
          "internalType": "uint256",
          "name": "createdAt",
          "type": "uint256"
        }
      ],
      "stateMutability": "view",
      "type": "function"
    },
    {
      "inputs": [],
      "name": "getAllTokenIds",
      "outputs": [
        {
          "internalType": "uint256[]",
          "name": "",
          "type": "uint256[]"
        }
      ],
      "stateMutability": "view",
      "type": "function"
    },
    {
      "inputs": [
        {
          "internalType": "uint256",
          "name": "tokenId",
          "type": "uint256"
        }
      ],
      "name": "getApproved",
      "outputs": [
        {
          "internalType": "address",
          "name": "",
          "type": "address"
        }
      ],
      "stateMutability": "view",
      "type": "function"
    },
    {
      "inputs": [
        {
          "internalType": "uint256",
          "name": "tokenId",
          "type": "uint256"
        }
      ],
      "name": "getCertifications",
      "outputs": [
        {
          "components": [
            {
              "internalType": "bytes32",
              "name": "certificationIdHash",
              "type": "bytes32"
            },
            {
              "internalType": "address",
              "name": "legalEntityAddress",
              "type": "address"
            },
            {
              "internalType": "bytes32",
              "name": "legalEntityIdHash",
              "type": "bytes32"
            },
            {
              "internalType": "address",
              "name": "certificatorAddress",
              "type": "address"
            },
            {
              "internalType": "bytes32",
              "name": "certificatorIdHash",
              "type": "bytes32"
            },
            {
              "internalType": "string[]",
              "name": "documents",
              "type": "string[]"
            },
            {
              "internalType": "uint256",
              "name": "createdAt",
              "type": "uint256"
            }
          ],
          "internalType": "struct JetCVNFT.Certification[]",
          "name": "",
          "type": "tuple[]"
        }
      ],
      "stateMutability": "view",
      "type": "function"
    },
    {
      "inputs": [
        {
          "internalType": "address",
          "name": "walletAddress",
          "type": "address"
        }
      ],
      "name": "hasCV",
      "outputs": [
        {
          "internalType": "bool",
          "name": "",
          "type": "bool"
        }
      ],
      "stateMutability": "view",
      "type": "function"
    },
    {
      "inputs": [
        {
          "internalType": "address",
          "name": "",
          "type": "address"
        }
      ],
      "name": "hasJetCV",
      "outputs": [
        {
          "internalType": "bool",
          "name": "",
          "type": "bool"
        }
      ],
      "stateMutability": "view",
      "type": "function"
    },
    {
      "inputs": [
        {
          "internalType": "address",
          "name": "owner",
          "type": "address"
        },
        {
          "internalType": "address",
          "name": "operator",
          "type": "address"
        }
      ],
      "name": "isApprovedForAll",
      "outputs": [
        {
          "internalType": "bool",
          "name": "",
          "type": "bool"
        }
      ],
      "stateMutability": "view",
      "type": "function"
    },
    {
      "inputs": [
        {
          "internalType": "uint256",
          "name": "tokenId",
          "type": "uint256"
        }
      ],
      "name": "isMinted",
      "outputs": [
        {
          "internalType": "bool",
          "name": "",
          "type": "bool"
        }
      ],
      "stateMutability": "view",
      "type": "function"
    },
    {
      "inputs": [
        {
          "internalType": "address",
          "name": "walletAddress",
          "type": "address"
        },
        {
          "internalType": "bytes32",
          "name": "userIdHash_",
          "type": "bytes32"
        }
      ],
      "name": "mintTo",
      "outputs": [
        {
          "internalType": "uint256",
          "name": "",
          "type": "uint256"
        }
      ],
      "stateMutability": "nonpayable",
      "type": "function"
    },
    {
      "inputs": [],
      "name": "name",
      "outputs": [
        {
          "internalType": "string",
          "name": "",
          "type": "string"
        }
      ],
      "stateMutability": "view",
      "type": "function"
    },
    {
      "inputs": [],
      "name": "owner",
      "outputs": [
        {
          "internalType": "address",
          "name": "",
          "type": "address"
        }
      ],
      "stateMutability": "view",
      "type": "function"
    },
    {
      "inputs": [
        {
          "internalType": "uint256",
          "name": "tokenId",
          "type": "uint256"
        }
      ],
      "name": "ownerOf",
      "outputs": [
        {
          "internalType": "address",
          "name": "",
          "type": "address"
        }
      ],
      "stateMutability": "view",
      "type": "function"
    },
    {
      "inputs": [],
      "name": "renounceOwnership",
      "outputs": [],
      "stateMutability": "nonpayable",
      "type": "function"
    },
    {
      "inputs": [
        {
          "internalType": "address",
          "name": "from",
          "type": "address"
        },
        {
          "internalType": "address",
          "name": "to",
          "type": "address"
        },
        {
          "internalType": "uint256",
          "name": "tokenId",
          "type": "uint256"
        }
      ],
      "name": "safeTransferFrom",
      "outputs": [],
      "stateMutability": "nonpayable",
      "type": "function"
    },
    {
      "inputs": [
        {
          "internalType": "address",
          "name": "from",
          "type": "address"
        },
        {
          "internalType": "address",
          "name": "to",
          "type": "address"
        },
        {
          "internalType": "uint256",
          "name": "tokenId",
          "type": "uint256"
        },
        {
          "internalType": "bytes",
          "name": "data",
          "type": "bytes"
        }
      ],
      "name": "safeTransferFrom",
      "outputs": [],
      "stateMutability": "nonpayable",
      "type": "function"
    },
    {
      "inputs": [
        {
          "internalType": "address",
          "name": "operator",
          "type": "address"
        },
        {
          "internalType": "bool",
          "name": "approved",
          "type": "bool"
        }
      ],
      "name": "setApprovalForAll",
      "outputs": [],
      "stateMutability": "nonpayable",
      "type": "function"
    },
    {
      "inputs": [
        {
          "internalType": "bytes4",
          "name": "interfaceId",
          "type": "bytes4"
        }
      ],
      "name": "supportsInterface",
      "outputs": [
        {
          "internalType": "bool",
          "name": "",
          "type": "bool"
        }
      ],
      "stateMutability": "view",
      "type": "function"
    },
    {
      "inputs": [],
      "name": "symbol",
      "outputs": [
        {
          "internalType": "string",
          "name": "",
          "type": "string"
        }
      ],
      "stateMutability": "view",
      "type": "function"
    },
    {
      "inputs": [
        {
          "internalType": "uint256",
          "name": "tokenId",
          "type": "uint256"
        }
      ],
      "name": "tokenURI",
      "outputs": [
        {
          "internalType": "string",
          "name": "",
          "type": "string"
        }
      ],
      "stateMutability": "view",
      "type": "function"
    },
    {
      "inputs": [
        {
          "internalType": "address",
          "name": "from",
          "type": "address"
        },
        {
          "internalType": "address",
          "name": "to",
          "type": "address"
        },
        {
          "internalType": "uint256",
          "name": "tokenId",
          "type": "uint256"
        }
      ],
      "name": "transferFrom",
      "outputs": [],
      "stateMutability": "nonpayable",
      "type": "function"
    },
    {
      "inputs": [
        {
          "internalType": "address",
          "name": "newOwner",
          "type": "address"
        }
      ],
      "name": "transferOwnership",
      "outputs": [],
      "stateMutability": "nonpayable",
      "type": "function"
    },
    {
      "inputs": [
        {
          "internalType": "uint256",
          "name": "",
          "type": "uint256"
        }
      ],
      "name": "userIdHash",
      "outputs": [
        {
          "internalType": "bytes32",
          "name": "",
          "type": "bytes32"
        }
      ],
      "stateMutability": "view",
      "type": "function"
    },
    {
      "inputs": [
        {
          "internalType": "address",
          "name": "",
          "type": "address"
        }
      ],
      "name": "userTokenId",
      "outputs": [
        {
          "internalType": "uint256",
          "name": "",
          "type": "uint256"
        }
      ],
      "stateMutability": "view",
      "type": "function"
    }
  ],
  "bytecode": "0x608060405234801561001057600080fd5b50336040518060400160405280600881526020017f4a657443564e46540000000000000000000000000000000000000000000000008152506040518060400160405280600381526020017f4a43560000000000000000000000000000000000000000000000000000000000815250816000908161008d919061043d565b50806001908161009d919061043d565b505050600073ffffffffffffffffffffffffffffffffffffffff168173ffffffffffffffffffffffffffffffffffffffff16036101125760006040517f1e4fbdf70000000000000000000000000000000000000000000000000000000081526004016101099190610550565b60405180910390fd5b6101218161012760201b60201c565b5061056b565b6000600760009054906101000a900473ffffffffffffffffffffffffffffffffffffffff16905081600760006101000a81548173ffffffffffffffffffffffffffffffffffffffff021916908373ffffffffffffffffffffffffffffffffffffffff1602179055508173ffffffffffffffffffffffffffffffffffffffff168173ffffffffffffffffffffffffffffffffffffffff167f8be0079c531659141344cd1fd0a4f28419497f9722a3daafe3b4186f6b6457e060405160405180910390a35050565b600081519050919050565b7f4e487b7100000000000000000000000000000000000000000000000000000000600052604160045260246000fd5b7f4e487b7100000000000000000000000000000000000000000000000000000000600052602260045260246000fd5b6000600282049050600182168061026e57607f821691505b60208210810361028157610280610227565b5b50919050565b60008190508160005260206000209050919050565b60006020601f8301049050919050565b600082821b905092915050565b6000600883026102e97fffffffffffffffffffffffffffffffffffffffffffffffffffffffffffffffff826102ac565b6102f386836102ac565b95508019841693508086168417925050509392505050565b6000819050919050565b6000819050919050565b600061033a6103356103308461030b565b610315565b61030b565b9050919050565b6000819050919050565b6103548361031f565b61036861036082610341565b8484546102b9565b825550505050565b600090565b61037d610370565b61038881848461034b565b505050565b5b818110156103ac576103a1600082610375565b60018101905061038e565b5050565b601f8211156103f1576103c281610287565b6103cb8461029c565b810160208510156103da578190505b6103ee6103e68561029c565b83018261038d565b50505b505050565b600082821c905092915050565b6000610414600019846008026103f6565b1980831691505092915050565b600061042d8383610403565b9150826002028217905092915050565b610446826101ed565b67ffffffffffffffff81111561045f5761045e6101f8565b5b6104698254610256565b6104748282856103b0565b600060209050601f8311600181146104a75760008415610495578287015190505b61049f8582610421565b865550610507565b601f1984166104b586610287565b60005b828110156104dd578489015182556001820191506020850194506020810190506104b8565b868310156104fa57848901516104f6601f891682610403565b8355505b6001600288020188555050505b505050505050565b600073ffffffffffffffffffffffffffffffffffffffff82169050919050565b600061053a8261050f565b9050919050565b61054a8161052f565b82525050565b60006020820190506105656000830184610541565b92915050565b613f768061057a6000396000f3fe608060405234801561001057600080fd5b50600436106101cf5760003560e01c8063782db97611610104578063a22cb465116100a2578063c87b56dd11610071578063c87b56dd1461057d578063e9098026146105ad578063e985e9c5146105dd578063f2fde38b1461060d576101cf565b8063a22cb465146104f7578063adf288df14610513578063b88d4fde14610543578063bdbed7221461055f576101cf565b806381056114116100de5780638105611414610456578063813651071461048b5780638da5cb5b146104bb57806395d89b41146104d9576101cf565b8063782db976146103da5780637d07b2d2146103f65780638070958c14610426576101cf565b806338b90333116101715780636352211e1161014b5780636352211e1461034057806370a0823114610370578063715018a6146103a0578063715ca542146103aa576101cf565b806338b90333146102ea5780633b87b5e91461030857806342842e0e14610324576101cf565b8063095ea7b3116101ad578063095ea7b31461025257806323b872dd1461026e57806324c876da1461028a57806333c41a90146102ba576101cf565b806301ffc9a7146101d457806306fdde0314610204578063081812fc14610222575b600080fd5b6101ee60048036038101906101e991906129f4565b610629565b6040516101fb9190612a3c565b60405180910390f35b61020c61068a565b6040516102199190612ae7565b60405180910390f35b61023c60048036038101906102379190612b3f565b61071c565b6040516102499190612bad565b60405180910390f35b61026c60048036038101906102679190612bf4565b610738565b005b61028860048036038101906102839190612c34565b61074e565b005b6102a4600480360381019061029f9190612c87565b610850565b6040516102b19190612a3c565b60405180910390f35b6102d460048036038101906102cf9190612b3f565b6108a6565b6040516102e19190612a3c565b60405180910390f35b6102f26108e7565b6040516102ff9190612ae7565b60405180910390f35b610322600480360381019061031d9190612f05565b610920565b005b61033e60048036038101906103399190612c34565b610bf8565b005b61035a60048036038101906103559190612b3f565b610c18565b6040516103679190612bad565b60405180910390f35b61038a60048036038101906103859190612c87565b610c2a565b6040516103979190612fe6565b60405180910390f35b6103a8610ce4565b005b6103c460048036038101906103bf9190612c87565b610cf8565b6040516103d19190612fe6565b60405180910390f35b6103f460048036038101906103ef919061305c565b610d10565b005b610410600480360381019061040b9190612b3f565b610f00565b60405161041d9190612fe6565b60405180910390f35b610440600480360381019061043b9190612c87565b610f24565b60405161044d9190612a3c565b60405180910390f35b610470600480360381019061046b91906130d0565b610f44565b6040516104829695949392919061311f565b60405180910390f35b6104a560048036038101906104a09190612b3f565b610fdd565b6040516104b29190613180565b60405180910390f35b6104c3610ff5565b6040516104d09190612bad565b60405180910390f35b6104e161101f565b6040516104ee9190612ae7565b60405180910390f35b610511600480360381019061050c91906131c7565b6110b1565b005b61052d60048036038101906105289190613207565b6110c7565b60405161053a9190612fe6565b60405180910390f35b61055d600480360381019061055891906132e8565b6112b8565b005b6105676112dd565b6040516105749190613429565b60405180910390f35b61059760048036038101906105929190612b3f565b611335565b6040516105a49190612ae7565b60405180910390f35b6105c760048036038101906105c29190612b3f565b611448565b6040516105d491906136d3565b60405180910390f35b6105f760048036038101906105f291906136f5565b611667565b6040516106049190612a3c565b60405180910390f35b61062760048036038101906106229190612c87565b6116fb565b005b6000634906490660e01b7bffffffffffffffffffffffffffffffffffffffffffffffffffffffff1916827bffffffffffffffffffffffffffffffffffffffffffffffffffffffff19161480610683575061068282611781565b5b9050919050565b60606000805461069990613764565b80601f01602080910402602001604051908101604052809291908181526020018280546106c590613764565b80156107125780601f106106e757610100808354040283529160200191610712565b820191906000526020600020905b8154815290600101906020018083116106f557829003601f168201915b5050505050905090565b600061072782611863565b50610731826118eb565b9050919050565b61074a8282610745611928565b611930565b5050565b600073ffffffffffffffffffffffffffffffffffffffff168273ffffffffffffffffffffffffffffffffffffffff16036107c05760006040517f64a0ae920000000000000000000000000000000000000000000000000000000081526004016107b79190612bad565b60405180910390fd5b60006107d483836107cf611928565b611942565b90508373ffffffffffffffffffffffffffffffffffffffff168173ffffffffffffffffffffffffffffffffffffffff161461084a578382826040517f64283d7b00000000000000000000000000000000000000000000000000000000815260040161084193929190613795565b60405180910390fd5b50505050565b6000600860008373ffffffffffffffffffffffffffffffffffffffff1673ffffffffffffffffffffffffffffffffffffffff16815260200190815260200160002060009054906101000a900460ff169050919050565b60008073ffffffffffffffffffffffffffffffffffffffff166108c8836119d4565b73ffffffffffffffffffffffffffffffffffffffff1614159050919050565b6040518060400160405280600381526020017f312e30000000000000000000000000000000000000000000000000000000000081525081565b610928611a11565b600860008973ffffffffffffffffffffffffffffffffffffffff1673ffffffffffffffffffffffffffffffffffffffff16815260200190815260200160002060009054906101000a900460ff166109b4576040517f08c379a00000000000000000000000000000000000000000000000000000000081526004016109ab90613818565b60405180910390fd5b86600960008a73ffffffffffffffffffffffffffffffffffffffff1673ffffffffffffffffffffffffffffffffffffffff1681526020019081526020016000205414610a35576040517f08c379a0000000000000000000000000000000000000000000000000000000008152600401610a2c906138aa565b60405180910390fd5b60006040518060e001604052808881526020018673ffffffffffffffffffffffffffffffffffffffff1681526020018581526020018473ffffffffffffffffffffffffffffffffffffffff168152602001838152602001878152602001428152509050600a60008981526020019081526020016000208190806001815401808255809150506001900390600052602060002090600702016000909190919091506000820151816000015560208201518160010160006101000a81548173ffffffffffffffffffffffffffffffffffffffff021916908373ffffffffffffffffffffffffffffffffffffffff1602179055506040820151816002015560608201518160030160006101000a81548173ffffffffffffffffffffffffffffffffffffffff021916908373ffffffffffffffffffffffffffffffffffffffff1602179055506080820151816004015560a0820151816005019080519060200190610b9d9291906128ae565b5060c0820151816006015550507fccfabd047be351845764989e116a1e17d58e9d72a6d6f1387e5e3010a9b8971489848785888c8c604051610be59796959493929190613950565b60405180910390a1505050505050505050565b610c13838383604051806020016040528060008152506112b8565b505050565b6000610c2382611863565b9050919050565b60008073ffffffffffffffffffffffffffffffffffffffff168273ffffffffffffffffffffffffffffffffffffffff1603610c9d5760006040517f89c62b64000000000000000000000000000000000000000000000000000000008152600401610c949190612bad565b60405180910390fd5b600360008373ffffffffffffffffffffffffffffffffffffffff1673ffffffffffffffffffffffffffffffffffffffff168152602001908152602001600020549050919050565b610cec611a11565b610cf66000611a98565b565b60096020528060005260406000206000915090505481565b610d18611a11565b600860008573ffffffffffffffffffffffffffffffffffffffff1673ffffffffffffffffffffffffffffffffffffffff16815260200190815260200160002060009054906101000a900460ff16610da4576040517f08c379a0000000000000000000000000000000000000000000000000000000008152600401610d9b90613818565b60405180910390fd5b6000600960008673ffffffffffffffffffffffffffffffffffffffff1673ffffffffffffffffffffffffffffffffffffffff168152602001908152602001600020549050610df181611b5e565b6000600860008773ffffffffffffffffffffffffffffffffffffffff1673ffffffffffffffffffffffffffffffffffffffff16815260200190815260200160002060006101000a81548160ff0219169083151502179055506000600960008773ffffffffffffffffffffffffffffffffffffffff1673ffffffffffffffffffffffffffffffffffffffff168152602001908152602001600020819055508473ffffffffffffffffffffffffffffffffffffffff167f61fb2fc5647bcb6ff7b5e771e3969f3f0e856267e285fa6685b1b1f52e9882278242878787600b600089815260200190815260200160002054604051610ef1969594939291906139f3565b60405180910390a25050505050565b600c8181548110610f1057600080fd5b906000526020600020016000915090505481565b60086020528060005260406000206000915054906101000a900460ff1681565b600a6020528160005260406000208181548110610f6057600080fd5b9060005260206000209060070201600091509150508060000154908060010160009054906101000a900473ffffffffffffffffffffffffffffffffffffffff16908060020154908060030160009054906101000a900473ffffffffffffffffffffffffffffffffffffffff16908060040154908060060154905086565b600b6020528060005260406000206000915090505481565b6000600760009054906101000a900473ffffffffffffffffffffffffffffffffffffffff16905090565b60606001805461102e90613764565b80601f016020809104026020016040519081016040528092919081815260200182805461105a90613764565b80156110a75780601f1061107c576101008083540402835291602001916110a7565b820191906000526020600020905b81548152906001019060200180831161108a57829003601f168201915b5050505050905090565b6110c36110bc611928565b8383611be4565b5050565b60006110d1611a11565b600860008473ffffffffffffffffffffffffffffffffffffffff1673ffffffffffffffffffffffffffffffffffffffff16815260200190815260200160002060009054906101000a900460ff161561115e576040517f08c379a000000000000000000000000000000000000000000000000000000000815260040161115590613a9b565b60405180910390fd5b60008373ffffffffffffffffffffffffffffffffffffffff1690506111838482611d53565b6001600860008673ffffffffffffffffffffffffffffffffffffffff1673ffffffffffffffffffffffffffffffffffffffff16815260200190815260200160002060006101000a81548160ff02191690831515021790555080600960008673ffffffffffffffffffffffffffffffffffffffff1673ffffffffffffffffffffffffffffffffffffffff1681526020019081526020016000208190555082600b600083815260200190815260200160002081905550600c8190806001815401808255809150506001900390600052602060002001600090919091909150558373ffffffffffffffffffffffffffffffffffffffff167ff0afc38350693ba827c79f27cda2b72ff02d7fa0615a14cf194ce39128199f7c846040516112a69190613180565b60405180910390a28091505092915050565b6112c384848461074e565b6112d76112ce611928565b85858585611d71565b50505050565b6060600c80548060200260200160405190810160405280929190818152602001828054801561132b57602002820191906000526020600020905b815481526020019060010190808311611317575b5050505050905090565b606061134082611863565b50600060066000848152602001908152602001600020805461136190613764565b80601f016020809104026020016040519081016040528092919081815260200182805461138d90613764565b80156113da5780601f106113af576101008083540402835291602001916113da565b820191906000526020600020905b8154815290600101906020018083116113bd57829003601f168201915b5050505050905060006113eb611f22565b90506000815103611400578192505050611443565b60008251111561143557808260405160200161141d929190613af7565b60405160208183030381529060405292505050611443565b61143e84611f39565b925050505b919050565b6060600a6000838152602001908152602001600020805480602002602001604051908101604052809291908181526020016000905b8282101561165c57838290600052602060002090600702016040518060e0016040529081600082015481526020016001820160009054906101000a900473ffffffffffffffffffffffffffffffffffffffff1673ffffffffffffffffffffffffffffffffffffffff1673ffffffffffffffffffffffffffffffffffffffff168152602001600282015481526020016003820160009054906101000a900473ffffffffffffffffffffffffffffffffffffffff1673ffffffffffffffffffffffffffffffffffffffff1673ffffffffffffffffffffffffffffffffffffffff1681526020016004820154815260200160058201805480602002602001604051908101604052809291908181526020016000905b8282101561163b5783829060005260206000200180546115ae90613764565b80601f01602080910402602001604051908101604052809291908181526020018280546115da90613764565b80156116275780601f106115fc57610100808354040283529160200191611627565b820191906000526020600020905b81548152906001019060200180831161160a57829003601f168201915b50505050508152602001906001019061158f565b5050505081526020016006820154815250508152602001906001019061147d565b505050509050919050565b6000600560008473ffffffffffffffffffffffffffffffffffffffff1673ffffffffffffffffffffffffffffffffffffffff16815260200190815260200160002060008373ffffffffffffffffffffffffffffffffffffffff1673ffffffffffffffffffffffffffffffffffffffff16815260200190815260200160002060009054906101000a900460ff16905092915050565b611703611a11565b600073ffffffffffffffffffffffffffffffffffffffff168173ffffffffffffffffffffffffffffffffffffffff16036117755760006040517f1e4fbdf700000000000000000000000000000000000000000000000000000000815260040161176c9190612bad565b60405180910390fd5b61177e81611a98565b50565b60007f80ac58cd000000000000000000000000000000000000000000000000000000007bffffffffffffffffffffffffffffffffffffffffffffffffffffffff1916827bffffffffffffffffffffffffffffffffffffffffffffffffffffffff1916148061184c57507f5b5e139f000000000000000000000000000000000000000000000000000000007bffffffffffffffffffffffffffffffffffffffffffffffffffffffff1916827bffffffffffffffffffffffffffffffffffffffffffffffffffffffff1916145b8061185c575061185b82611fa2565b5b9050919050565b60008061186f836119d4565b9050600073ffffffffffffffffffffffffffffffffffffffff168173ffffffffffffffffffffffffffffffffffffffff16036118e257826040517f7e2732890000000000000000000000000000000000000000000000000000000081526004016118d99190612fe6565b60405180910390fd5b80915050919050565b60006004600083815260200190815260200160002060009054906101000a900473ffffffffffffffffffffffffffffffffffffffff169050919050565b600033905090565b61193d838383600161200c565b505050565b60008061194e846119d4565b9050600073ffffffffffffffffffffffffffffffffffffffff168173ffffffffffffffffffffffffffffffffffffffff16146119bf576040517f08c379a00000000000000000000000000000000000000000000000000000000081526004016119b690613b67565b60405180910390fd5b6119ca8585856121d1565b9150509392505050565b60006002600083815260200190815260200160002060009054906101000a900473ffffffffffffffffffffffffffffffffffffffff169050919050565b611a19611928565b73ffffffffffffffffffffffffffffffffffffffff16611a37610ff5565b73ffffffffffffffffffffffffffffffffffffffff1614611a9657611a5a611928565b6040517f118cdaa7000000000000000000000000000000000000000000000000000000008152600401611a8d9190612bad565b60405180910390fd5b565b6000600760009054906101000a900473ffffffffffffffffffffffffffffffffffffffff16905081600760006101000a81548173ffffffffffffffffffffffffffffffffffffffff021916908373ffffffffffffffffffffffffffffffffffffffff1602179055508173ffffffffffffffffffffffffffffffffffffffff168173ffffffffffffffffffffffffffffffffffffffff167f8be0079c531659141344cd1fd0a4f28419497f9722a3daafe3b4186f6b6457e060405160405180910390a35050565b6000611b6d6000836000611942565b9050600073ffffffffffffffffffffffffffffffffffffffff168173ffffffffffffffffffffffffffffffffffffffff1603611be057816040517f7e273289000000000000000000000000000000000000000000000000000000008152600401611bd79190612fe6565b60405180910390fd5b5050565b600073ffffffffffffffffffffffffffffffffffffffff168273ffffffffffffffffffffffffffffffffffffffff1603611c5557816040517f5b08ba18000000000000000000000000000000000000000000000000000000008152600401611c4c9190612bad565b60405180910390fd5b80600560008573ffffffffffffffffffffffffffffffffffffffff1673ffffffffffffffffffffffffffffffffffffffff16815260200190815260200160002060008473ffffffffffffffffffffffffffffffffffffffff1673ffffffffffffffffffffffffffffffffffffffff16815260200190815260200160002060006101000a81548160ff0219169083151502179055508173ffffffffffffffffffffffffffffffffffffffff168373ffffffffffffffffffffffffffffffffffffffff167f17307eab39ab6107e8899845ad3d59bd9653f200f220920489ca2b5937696c3183604051611d469190612a3c565b60405180910390a3505050565b611d6d8282604051806020016040528060008152506123eb565b5050565b60008373ffffffffffffffffffffffffffffffffffffffff163b1115611f1b578273ffffffffffffffffffffffffffffffffffffffff1663150b7a02868685856040518563ffffffff1660e01b8152600401611dd09493929190613bdc565b6020604051808303816000875af1925050508015611e0c57506040513d601f19601f82011682018060405250810190611e099190613c3d565b60015b611e90573d8060008114611e3c576040519150601f19603f3d011682016040523d82523d6000602084013e611e41565b606091505b506000815103611e8857836040517f64a0ae92000000000000000000000000000000000000000000000000000000008152600401611e7f9190612bad565b60405180910390fd5b805160208201fd5b63150b7a0260e01b7bffffffffffffffffffffffffffffffffffffffffffffffffffffffff1916817bffffffffffffffffffffffffffffffffffffffffffffffffffffffff191614611f1957836040517f64a0ae92000000000000000000000000000000000000000000000000000000008152600401611f109190612bad565b60405180910390fd5b505b5050505050565b606060405180602001604052806000815250905090565b6060611f4482611863565b506000611f4f611f22565b90506000815111611f6f5760405180602001604052806000815250611f9a565b80611f798461240f565b604051602001611f8a929190613af7565b6040516020818303038152906040525b915050919050565b60007f01ffc9a7000000000000000000000000000000000000000000000000000000007bffffffffffffffffffffffffffffffffffffffffffffffffffffffff1916827bffffffffffffffffffffffffffffffffffffffffffffffffffffffff1916149050919050565b80806120455750600073ffffffffffffffffffffffffffffffffffffffff168273ffffffffffffffffffffffffffffffffffffffff1614155b1561217957600061205584611863565b9050600073ffffffffffffffffffffffffffffffffffffffff168373ffffffffffffffffffffffffffffffffffffffff16141580156120c057508273ffffffffffffffffffffffffffffffffffffffff168173ffffffffffffffffffffffffffffffffffffffff1614155b80156120d357506120d18184611667565b155b1561211557826040517fa9fbf51f00000000000000000000000000000000000000000000000000000000815260040161210c9190612bad565b60405180910390fd5b811561217757838573ffffffffffffffffffffffffffffffffffffffff168273ffffffffffffffffffffffffffffffffffffffff167f8c5be1e5ebec7d5bd14f71427d1e84f3dd0314c0f7b2291e5b200ac8c7c3b92560405160405180910390a45b505b836004600085815260200190815260200160002060006101000a81548173ffffffffffffffffffffffffffffffffffffffff021916908373ffffffffffffffffffffffffffffffffffffffff16021790555050505050565b6000806121dd846119d4565b9050600073ffffffffffffffffffffffffffffffffffffffff168373ffffffffffffffffffffffffffffffffffffffff161461221f5761221e8184866124dd565b5b600073ffffffffffffffffffffffffffffffffffffffff168173ffffffffffffffffffffffffffffffffffffffff16146122b05761226160008560008061200c565b6001600360008373ffffffffffffffffffffffffffffffffffffffff1673ffffffffffffffffffffffffffffffffffffffff168152602001908152602001600020600082825403925050819055505b600073ffffffffffffffffffffffffffffffffffffffff168573ffffffffffffffffffffffffffffffffffffffff1614612333576001600360008773ffffffffffffffffffffffffffffffffffffffff1673ffffffffffffffffffffffffffffffffffffffff168152602001908152602001600020600082825401925050819055505b846002600086815260200190815260200160002060006101000a81548173ffffffffffffffffffffffffffffffffffffffff021916908373ffffffffffffffffffffffffffffffffffffffff160217905550838573ffffffffffffffffffffffffffffffffffffffff168273ffffffffffffffffffffffffffffffffffffffff167fddf252ad1be2c89b69c2b068fc378daa952ba7f163c4a11628f55a4df523b3ef60405160405180910390a4809150509392505050565b6123f583836125a1565b61240a612400611928565b6000858585611d71565b505050565b60606000600161241e8461269a565b01905060008167ffffffffffffffff81111561243d5761243c612cef565b5b6040519080825280601f01601f19166020018201604052801561246f5781602001600182028036833780820191505090505b509050600082602083010190505b6001156124d2578080600190039150507f3031323334353637383961626364656600000000000000000000000000000000600a86061a8153600a85816124c6576124c5613c6a565b5b0494506000850361247d575b819350505050919050565b6124e88383836127ed565b61259c57600073ffffffffffffffffffffffffffffffffffffffff168373ffffffffffffffffffffffffffffffffffffffff160361255d57806040517f7e2732890000000000000000000000000000000000000000000000000000000081526004016125549190612fe6565b60405180910390fd5b81816040517f177e802f000000000000000000000000000000000000000000000000000000008152600401612593929190613c99565b60405180910390fd5b505050565b600073ffffffffffffffffffffffffffffffffffffffff168273ffffffffffffffffffffffffffffffffffffffff16036126135760006040517f64a0ae9200000000000000000000000000000000000000000000000000000000815260040161260a9190612bad565b60405180910390fd5b600061262183836000611942565b9050600073ffffffffffffffffffffffffffffffffffffffff168173ffffffffffffffffffffffffffffffffffffffff16146126955760006040517f73c6ac6e00000000000000000000000000000000000000000000000000000000815260040161268c9190612bad565b60405180910390fd5b505050565b600080600090507a184f03e93ff9f4daa797ed6e38ed64bf6a1f01000000000000000083106126f8577a184f03e93ff9f4daa797ed6e38ed64bf6a1f01000000000000000083816126ee576126ed613c6a565b5b0492506040810190505b6d04ee2d6d415b85acef81000000008310612735576d04ee2d6d415b85acef8100000000838161272b5761272a613c6a565b5b0492506020810190505b662386f26fc10000831061276457662386f26fc10000838161275a57612759613c6a565b5b0492506010810190505b6305f5e100831061278d576305f5e100838161278357612782613c6a565b5b0492506008810190505b61271083106127b25761271083816127a8576127a7613c6a565b5b0492506004810190505b606483106127d557606483816127cb576127ca613c6a565b5b0492506002810190505b600a83106127e4576001810190505b80915050919050565b60008073ffffffffffffffffffffffffffffffffffffffff168373ffffffffffffffffffffffffffffffffffffffff16141580156128a557508273ffffffffffffffffffffffffffffffffffffffff168473ffffffffffffffffffffffffffffffffffffffff16148061286657506128658484611667565b5b806128a457508273ffffffffffffffffffffffffffffffffffffffff1661288c836118eb565b73ffffffffffffffffffffffffffffffffffffffff16145b5b90509392505050565b8280548282559060005260206000209081019282156128f6579160200282015b828111156128f55782518290816128e59190613e6e565b50916020019190600101906128ce565b5b5090506129039190612907565b5090565b5b80821115612927576000818161291e919061292b565b50600101612908565b5090565b50805461293790613764565b6000825580601f106129495750612968565b601f016020900490600052602060002090810190612967919061296b565b5b50565b5b8082111561298457600081600090555060010161296c565b5090565b6000604051905090565b600080fd5b600080fd5b60007fffffffff0000000000000000000000000000000000000000000000000000000082169050919050565b6129d18161299c565b81146129dc57600080fd5b50565b6000813590506129ee816129c8565b92915050565b600060208284031215612a0a57612a09612992565b5b6000612a18848285016129df565b91505092915050565b60008115159050919050565b612a3681612a21565b82525050565b6000602082019050612a516000830184612a2d565b92915050565b600081519050919050565b600082825260208201905092915050565b60005b83811015612a91578082015181840152602081019050612a76565b60008484015250505050565b6000601f19601f8301169050919050565b6000612ab982612a57565b612ac38185612a62565b9350612ad3818560208601612a73565b612adc81612a9d565b840191505092915050565b60006020820190508181036000830152612b018184612aae565b905092915050565b6000819050919050565b612b1c81612b09565b8114612b2757600080fd5b50565b600081359050612b3981612b13565b92915050565b600060208284031215612b5557612b54612992565b5b6000612b6384828501612b2a565b91505092915050565b600073ffffffffffffffffffffffffffffffffffffffff82169050919050565b6000612b9782612b6c565b9050919050565b612ba781612b8c565b82525050565b6000602082019050612bc26000830184612b9e565b92915050565b612bd181612b8c565b8114612bdc57600080fd5b50565b600081359050612bee81612bc8565b92915050565b60008060408385031215612c0b57612c0a612992565b5b6000612c1985828601612bdf565b9250506020612c2a85828601612b2a565b9150509250929050565b600080600060608486031215612c4d57612c4c612992565b5b6000612c5b86828701612bdf565b9350506020612c6c86828701612bdf565b9250506040612c7d86828701612b2a565b9150509250925092565b600060208284031215612c9d57612c9c612992565b5b6000612cab84828501612bdf565b91505092915050565b6000819050919050565b612cc781612cb4565b8114612cd257600080fd5b50565b600081359050612ce481612cbe565b92915050565b600080fd5b7f4e487b7100000000000000000000000000000000000000000000000000000000600052604160045260246000fd5b612d2782612a9d565b810181811067ffffffffffffffff82111715612d4657612d45612cef565b5b80604052505050565b6000612d59612988565b9050612d658282612d1e565b919050565b600067ffffffffffffffff821115612d8557612d84612cef565b5b602082029050602081019050919050565b600080fd5b600080fd5b600067ffffffffffffffff821115612dbb57612dba612cef565b5b612dc482612a9d565b9050602081019050919050565b82818337600083830152505050565b6000612df3612dee84612da0565b612d4f565b905082815260208101848484011115612e0f57612e0e612d9b565b5b612e1a848285612dd1565b509392505050565b600082601f830112612e3757612e36612cea565b5b8135612e47848260208601612de0565b91505092915050565b6000612e63612e5e84612d6a565b612d4f565b90508083825260208201905060208402830185811115612e8657612e85612d96565b5b835b81811015612ecd57803567ffffffffffffffff811115612eab57612eaa612cea565b5b808601612eb88982612e22565b85526020850194505050602081019050612e88565b5050509392505050565b600082601f830112612eec57612eeb612cea565b5b8135612efc848260208601612e50565b91505092915050565b600080600080600080600080610100898b031215612f2657612f25612992565b5b6000612f348b828c01612bdf565b9850506020612f458b828c01612b2a565b9750506040612f568b828c01612cd5565b965050606089013567ffffffffffffffff811115612f7757612f76612997565b5b612f838b828c01612ed7565b9550506080612f948b828c01612bdf565b94505060a0612fa58b828c01612cd5565b93505060c0612fb68b828c01612bdf565b92505060e0612fc78b828c01612cd5565b9150509295985092959890939650565b612fe081612b09565b82525050565b6000602082019050612ffb6000830184612fd7565b92915050565b600080fd5b60008083601f84011261301c5761301b612cea565b5b8235905067ffffffffffffffff81111561303957613038613001565b5b60208301915083600182028301111561305557613054612d96565b5b9250929050565b6000806000806060858703121561307657613075612992565b5b600061308487828801612bdf565b945050602085013567ffffffffffffffff8111156130a5576130a4612997565b5b6130b187828801613006565b935093505060406130c487828801612bdf565b91505092959194509250565b600080604083850312156130e7576130e6612992565b5b60006130f585828601612b2a565b925050602061310685828601612b2a565b9150509250929050565b61311981612cb4565b82525050565b600060c0820190506131346000830189613110565b6131416020830188612b9e565b61314e6040830187613110565b61315b6060830186612b9e565b6131686080830185613110565b61317560a0830184612fd7565b979650505050505050565b60006020820190506131956000830184613110565b92915050565b6131a481612a21565b81146131af57600080fd5b50565b6000813590506131c18161319b565b92915050565b600080604083850312156131de576131dd612992565b5b60006131ec85828601612bdf565b92505060206131fd858286016131b2565b9150509250929050565b6000806040838503121561321e5761321d612992565b5b600061322c85828601612bdf565b925050602061323d85828601612cd5565b9150509250929050565b600067ffffffffffffffff82111561326257613261612cef565b5b61326b82612a9d565b9050602081019050919050565b600061328b61328684613247565b612d4f565b9050828152602081018484840111156132a7576132a6612d9b565b5b6132b2848285612dd1565b509392505050565b600082601f8301126132cf576132ce612cea565b5b81356132df848260208601613278565b91505092915050565b6000806000806080858703121561330257613301612992565b5b600061331087828801612bdf565b945050602061332187828801612bdf565b935050604061333287828801612b2a565b925050606085013567ffffffffffffffff81111561335357613352612997565b5b61335f878288016132ba565b91505092959194509250565b600081519050919050565b600082825260208201905092915050565b6000819050602082019050919050565b6133a081612b09565b82525050565b60006133b28383613397565b60208301905092915050565b6000602082019050919050565b60006133d68261336b565b6133e08185613376565b93506133eb83613387565b8060005b8381101561341c57815161340388826133a6565b975061340e836133be565b9250506001810190506133ef565b5085935050505092915050565b6000602082019050818103600083015261344381846133cb565b905092915050565b600081519050919050565b600082825260208201905092915050565b6000819050602082019050919050565b61348081612cb4565b82525050565b61348f81612b8c565b82525050565b600081519050919050565b600082825260208201905092915050565b6000819050602082019050919050565b600082825260208201905092915050565b60006134dd82612a57565b6134e781856134c1565b93506134f7818560208601612a73565b61350081612a9d565b840191505092915050565b600061351783836134d2565b905092915050565b6000602082019050919050565b600061353782613495565b61354181856134a0565b935083602082028501613553856134b1565b8060005b8581101561358f5784840389528151613570858261350b565b945061357b8361351f565b925060208a01995050600181019050613557565b50829750879550505050505092915050565b600060e0830160008301516135b96000860182613477565b5060208301516135cc6020860182613486565b5060408301516135df6040860182613477565b5060608301516135f26060860182613486565b5060808301516136056080860182613477565b5060a083015184820360a086015261361d828261352c565b91505060c083015161363260c0860182613397565b508091505092915050565b600061364983836135a1565b905092915050565b6000602082019050919050565b60006136698261344b565b6136738185613456565b93508360208202850161368585613467565b8060005b858110156136c157848403895281516136a2858261363d565b94506136ad83613651565b925060208a01995050600181019050613689565b50829750879550505050505092915050565b600060208201905081810360008301526136ed818461365e565b905092915050565b6000806040838503121561370c5761370b612992565b5b600061371a85828601612bdf565b925050602061372b85828601612bdf565b9150509250929050565b7f4e487b7100000000000000000000000000000000000000000000000000000000600052602260045260246000fd5b6000600282049050600182168061377c57607f821691505b60208210810361378f5761378e613735565b5b50919050565b60006060820190506137aa6000830186612b9e565b6137b76020830185612fd7565b6137c46040830184612b9e565b949350505050565b7f4a657443563a207573657220686173206e6f2043560000000000000000000000600082015250565b6000613802601583612a62565b915061380d826137cc565b602082019050919050565b60006020820190508181036000830152613831816137f5565b9050919050565b7f4a657443563a20746f6b656e496420646f6573206e6f742062656c6f6e67207460008201527f6f20757365720000000000000000000000000000000000000000000000000000602082015250565b6000613894602683612a62565b915061389f82613838565b604082019050919050565b600060208201905081810360008301526138c381613887565b9050919050565b600082825260208201905092915050565b60006138e682613495565b6138f081856138ca565b935083602082028501613902856134b1565b8060005b8581101561393e578484038952815161391f858261350b565b945061392a8361351f565b925060208a01995050600181019050613906565b50829750879550505050505092915050565b600060e082019050613965600083018a612b9e565b6139726020830189612b9e565b61397f6040830188612b9e565b61398c6060830187613110565b6139996080830186613110565b6139a660a0830185613110565b81810360c08301526139b881846138db565b905098975050505050505050565b60006139d28385612a62565b93506139df838584612dd1565b6139e883612a9d565b840190509392505050565b600060a082019050613a086000830189612fd7565b613a156020830188612fd7565b8181036040830152613a288186886139c6565b9050613a376060830185612b9e565b613a446080830184613110565b979650505050505050565b7f4a657443563a207573657220616c7265616479206f776e732061204356000000600082015250565b6000613a85601d83612a62565b9150613a9082613a4f565b602082019050919050565b60006020820190508181036000830152613ab481613a78565b9050919050565b600081905092915050565b6000613ad182612a57565b613adb8185613abb565b9350613aeb818560208601612a73565b80840191505092915050565b6000613b038285613ac6565b9150613b0f8284613ac6565b91508190509392505050565b7f4a657443563a205472616e736665722064697361626c65640000000000000000600082015250565b6000613b51601883612a62565b9150613b5c82613b1b565b602082019050919050565b60006020820190508181036000830152613b8081613b44565b9050919050565b600081519050919050565b600082825260208201905092915050565b6000613bae82613b87565b613bb88185613b92565b9350613bc8818560208601612a73565b613bd181612a9d565b840191505092915050565b6000608082019050613bf16000830187612b9e565b613bfe6020830186612b9e565b613c0b6040830185612fd7565b8181036060830152613c1d8184613ba3565b905095945050505050565b600081519050613c37816129c8565b92915050565b600060208284031215613c5357613c52612992565b5b6000613c6184828501613c28565b91505092915050565b7f4e487b7100000000000000000000000000000000000000000000000000000000600052601260045260246000fd5b6000604082019050613cae6000830185612b9e565b613cbb6020830184612fd7565b9392505050565b60008190508160005260206000209050919050565b60006020601f8301049050919050565b600082821b905092915050565b600060088302613d247fffffffffffffffffffffffffffffffffffffffffffffffffffffffffffffffff82613ce7565b613d2e8683613ce7565b95508019841693508086168417925050509392505050565b6000819050919050565b6000613d6b613d66613d6184612b09565b613d46565b612b09565b9050919050565b6000819050919050565b613d8583613d50565b613d99613d9182613d72565b848454613cf4565b825550505050565b600090565b613dae613da1565b613db9818484613d7c565b505050565b5b81811015613ddd57613dd2600082613da6565b600181019050613dbf565b5050565b601f821115613e2257613df381613cc2565b613dfc84613cd7565b81016020851015613e0b578190505b613e1f613e1785613cd7565b830182613dbe565b50505b505050565b600082821c905092915050565b6000613e4560001984600802613e27565b1980831691505092915050565b6000613e5e8383613e34565b9150826002028217905092915050565b613e7782612a57565b67ffffffffffffffff811115613e9057613e8f612cef565b5b613e9a8254613764565b613ea5828285613de1565b600060209050601f831160018114613ed85760008415613ec6578287015190505b613ed08582613e52565b865550613f38565b601f198416613ee686613cc2565b60005b82811015613f0e57848901518255600182019150602085019450602081019050613ee9565b86831015613f2b5784890151613f27601f891682613e34565b8355505b6001600288020188555050505b50505050505056fea2646970667358221220d2aa6dcd48e1afcffa9fe82eeb51aab9bed703cec3796413cfe90d7a239fa82164736f6c634300081a0033",
  "linkReferences": {},
  "deployedLinkReferences": {}
}